:100000000C9446000C9465000C9465000C946500FB
:100010000C9465000C9465000C9465000C946500CC
:100020000C9465000C9465000C9465000C946500BC
:100030000C9465000C9465000C9465000C946500AC
:100040000C9465000C9465000C9465000C9465009C
:100050000C9465000C9465000C9465000C9465008C
:100060000C9465000C9465000C9465000C9465007C
:100070000C9465000C9465000C9465000C9465006C
:100080000C9465000C9465000C94650011241FBE4F
:10009000CFEFD0E4DEBFCDBF11E0A0E0B1E0EAE4F5
:1000A000F3E000E00BBF02C007900D92AE30B10745
:1000B000D9F721E0AEE0B1E001C01D92A431B20752
:1000C000E1F70E9486010C94A3010C940000CF93E9
:1000D000DF9300D01F92CDB7DEB789837B836A831D
:1000E00089818A3031F48A819B81BC018DE00E9434
:1000F000670080EC90E0FC018081882F90E08072A6
:100100009927892BB1F386EC90E02981FC012083AB
:1001100080E090E00F900F900F90DF91CF910895C5
:10012000CF93DF93CDB7DEB780E290E0FC01808112
:10013000882F90E08170992721E0892B09F020E039
:10014000822F8093130180911101909112018230CE
:10015000910509F44BC08330910528F4009779F09C
:100160000197A1F086C08430910509F461C0843004
:10017000910508F442C0059709F461C07AC081E096
:1001800090E0909312018093110173C0809110014F
:10019000882381F480911301813061F482E090E042
:1001A000909312018093110180910F018F5F8093D2
:1001B0000F011BC080911001813081F480911301E7
:1001C000813061F484E090E09093120180931101FA
:1001D00080910F018F5F80930F0107C081E090E055
:1001E000909312018093110144C043C083E090E0DA
:1001F00090931201809311013CC0809113018823D8
:1002000081F480910F01883028F081E08093100103
:1002100010920F0181E090E0909312018093110100
:1002200028C083E090E0909312018093110121C0D7
:1002300085E090E090931201809311011AC08091A3
:100240001301882379F480910F01883020F01092F7
:10025000100110920F0181E090E0909312018093C1
:10026000110106C085E090E0909312018093110186
:100270000000809111019091120182309105A1F04E
:100280008330910528F4009761F0019781F134C023
:1002900084309105D1F08430910558F1059759F1DA
:1002A0002BC010920E0128C080910F01882F90E082
:1002B0009C012150310981E090E002C0880F991F14
:1002C0002A95E2F780930E0117C080910F01882FC5
:1002D00090E027E030E0281B390B81E090E002C07D
:1002E000880F991F2A95E2F780930E0105C0000040
:1002F00003C0000001C0000085E290E020910E01E3
:10030000FC0120830000DF91CF910895CF93DF930C
:10031000CDB7DEB781E290E0FC01108282E290E08E
:100320002FEFFC01208384E290E02FEFFC0120837B
:1003300085E290E0FC0110821092120110921101EE
:0A0340000E949000FDCFF894FFCF5B
:0E034A0000000002000000006700000000003C
:00000001FF
